{
  "contractName": "NftBridgeToken",
  "abi": [
    {
      "inputs": [],
      "stateMutability": "nonpayable",
      "type": "constructor"
    },
    {
      "anonymous": false,
      "inputs": [
        {
          "indexed": true,
          "internalType": "address",
          "name": "owner",
          "type": "address"
        },
        {
          "indexed": true,
          "internalType": "address",
          "name": "approved",
          "type": "address"
        },
        {
          "indexed": true,
          "internalType": "uint256",
          "name": "tokenId",
          "type": "uint256"
        }
      ],
      "name": "Approval",
      "type": "event"
    },
    {
      "anonymous": false,
      "inputs": [
        {
          "indexed": true,
          "internalType": "address",
          "name": "owner",
          "type": "address"
        },
        {
          "indexed": true,
          "internalType": "address",
          "name": "operator",
          "type": "address"
        },
        {
          "indexed": false,
          "internalType": "bool",
          "name": "approved",
          "type": "bool"
        }
      ],
      "name": "ApprovalForAll",
      "type": "event"
    },
    {
      "anonymous": false,
      "inputs": [
        {
          "indexed": true,
          "internalType": "address",
          "name": "previousOwner",
          "type": "address"
        },
        {
          "indexed": true,
          "internalType": "address",
          "name": "newOwner",
          "type": "address"
        }
      ],
      "name": "OwnershipTransferred",
      "type": "event"
    },
    {
      "anonymous": false,
      "inputs": [
        {
          "indexed": true,
          "internalType": "address",
          "name": "from",
          "type": "address"
        },
        {
          "indexed": true,
          "internalType": "address",
          "name": "to",
          "type": "address"
        },
        {
          "indexed": true,
          "internalType": "uint256",
          "name": "tokenId",
          "type": "uint256"
        }
      ],
      "name": "Transfer",
      "type": "event"
    },
    {
      "inputs": [
        {
          "internalType": "address",
          "name": "to",
          "type": "address"
        },
        {
          "internalType": "uint256",
          "name": "tokenId",
          "type": "uint256"
        }
      ],
      "name": "approve",
      "outputs": [],
      "stateMutability": "nonpayable",
      "type": "function"
    },
    {
      "inputs": [
        {
          "internalType": "address",
          "name": "owner",
          "type": "address"
        }
      ],
      "name": "balanceOf",
      "outputs": [
        {
          "internalType": "uint256",
          "name": "",
          "type": "uint256"
        }
      ],
      "stateMutability": "view",
      "type": "function"
    },
    {
      "inputs": [
        {
          "internalType": "uint256",
          "name": "tokenId",
          "type": "uint256"
        }
      ],
      "name": "getApproved",
      "outputs": [
        {
          "internalType": "address",
          "name": "",
          "type": "address"
        }
      ],
      "stateMutability": "view",
      "type": "function"
    },
    {
      "inputs": [
        {
          "internalType": "address",
          "name": "owner",
          "type": "address"
        },
        {
          "internalType": "address",
          "name": "operator",
          "type": "address"
        }
      ],
      "name": "isApprovedForAll",
      "outputs": [
        {
          "internalType": "bool",
          "name": "",
          "type": "bool"
        }
      ],
      "stateMutability": "view",
      "type": "function"
    },
    {
      "inputs": [],
      "name": "name",
      "outputs": [
        {
          "internalType": "string",
          "name": "",
          "type": "string"
        }
      ],
      "stateMutability": "view",
      "type": "function"
    },
    {
      "inputs": [],
      "name": "owner",
      "outputs": [
        {
          "internalType": "address",
          "name": "",
          "type": "address"
        }
      ],
      "stateMutability": "view",
      "type": "function"
    },
    {
      "inputs": [
        {
          "internalType": "uint256",
          "name": "tokenId",
          "type": "uint256"
        }
      ],
      "name": "ownerOf",
      "outputs": [
        {
          "internalType": "address",
          "name": "",
          "type": "address"
        }
      ],
      "stateMutability": "view",
      "type": "function"
    },
    {
      "inputs": [],
      "name": "renounceOwnership",
      "outputs": [],
      "stateMutability": "nonpayable",
      "type": "function"
    },
    {
      "inputs": [
        {
          "internalType": "address",
          "name": "from",
          "type": "address"
        },
        {
          "internalType": "address",
          "name": "to",
          "type": "address"
        },
        {
          "internalType": "uint256",
          "name": "tokenId",
          "type": "uint256"
        }
      ],
      "name": "safeTransferFrom",
      "outputs": [],
      "stateMutability": "nonpayable",
      "type": "function"
    },
    {
      "inputs": [
        {
          "internalType": "address",
          "name": "from",
          "type": "address"
        },
        {
          "internalType": "address",
          "name": "to",
          "type": "address"
        },
        {
          "internalType": "uint256",
          "name": "tokenId",
          "type": "uint256"
        },
        {
          "internalType": "bytes",
          "name": "_data",
          "type": "bytes"
        }
      ],
      "name": "safeTransferFrom",
      "outputs": [],
      "stateMutability": "nonpayable",
      "type": "function"
    },
    {
      "inputs": [
        {
          "internalType": "address",
          "name": "operator",
          "type": "address"
        },
        {
          "internalType": "bool",
          "name": "approved",
          "type": "bool"
        }
      ],
      "name": "setApprovalForAll",
      "outputs": [],
      "stateMutability": "nonpayable",
      "type": "function"
    },
    {
      "inputs": [
        {
          "internalType": "bytes4",
          "name": "interfaceId",
          "type": "bytes4"
        }
      ],
      "name": "supportsInterface",
      "outputs": [
        {
          "internalType": "bool",
          "name": "",
          "type": "bool"
        }
      ],
      "stateMutability": "view",
      "type": "function"
    },
    {
      "inputs": [],
      "name": "symbol",
      "outputs": [
        {
          "internalType": "string",
          "name": "",
          "type": "string"
        }
      ],
      "stateMutability": "view",
      "type": "function"
    },
    {
      "inputs": [
        {
          "internalType": "address",
          "name": "from",
          "type": "address"
        },
        {
          "internalType": "address",
          "name": "to",
          "type": "address"
        },
        {
          "internalType": "uint256",
          "name": "tokenId",
          "type": "uint256"
        }
      ],
      "name": "transferFrom",
      "outputs": [],
      "stateMutability": "nonpayable",
      "type": "function"
    },
    {
      "inputs": [
        {
          "internalType": "address",
          "name": "newOwner",
          "type": "address"
        }
      ],
      "name": "transferOwnership",
      "outputs": [],
      "stateMutability": "nonpayable",
      "type": "function"
    },
    {
      "inputs": [
        {
          "internalType": "address",
          "name": "to",
          "type": "address"
        },
        {
          "internalType": "uint256",
          "name": "tokenId",
          "type": "uint256"
        },
        {
          "internalType": "string",
          "name": "uri",
          "type": "string"
        }
      ],
      "name": "safeMint",
      "outputs": [],
      "stateMutability": "nonpayable",
      "type": "function"
    },
    {
      "inputs": [
        {
          "internalType": "uint256",
          "name": "tokenId",
          "type": "uint256"
        }
      ],
      "name": "tokenURI",
      "outputs": [
        {
          "internalType": "string",
          "name": "",
          "type": "string"
        }
      ],
      "stateMutability": "view",
      "type": "function"
    }
  ],
  "bytecode": "0x60806040523480156200001157600080fd5b506040518060400160405280600e81526020017f4e6674427269646765546f6b656e0000000000000000000000000000000000008152506040518060400160405280600381526020017f4e42540000000000000000000000000000000000000000000000000000000000815250816000908051906020019062000096929190620001a6565b508060019080519060200190620000af929190620001a6565b505050620000d2620000c6620000d860201b60201c565b620000e060201b60201c565b620002ba565b600033905090565b6000600760009054906101000a900473ffffffffffffffffffffffffffffffffffffffff16905081600760006101000a81548173ffffffffffffffffffffffffffffffffffffffff021916908373ffffffffffffffffffffffffffffffffffffffff1602179055508173ffffffffffffffffffffffffffffffffffffffff168173ffffffffffffffffffffffffffffffffffffffff167f8be0079c531659141344cd1fd0a4f28419497f9722a3daafe3b4186f6b6457e060405160405180910390a35050565b828054620001b49062000285565b90600052602060002090601f016020900481019282620001d8576000855562000224565b82601f10620001f357805160ff191683800117855562000224565b8280016001018555821562000224579182015b828111156200022357825182559160200191906001019062000206565b5b50905062000233919062000237565b5090565b5b808211156200025257600081600090555060010162000238565b5090565b7f4e487b7100000000000000000000000000000000000000000000000000000000600052602260045260246000fd5b600060028204905060018216806200029e57607f821691505b602082108103620002b457620002b362000256565b5b50919050565b61304c80620002ca6000396000f3fe608060405234801561001057600080fd5b506004361061010b5760003560e01c8063715018a6116100a2578063b88d4fde11610071578063b88d4fde146102a4578063c87b56dd146102c0578063cd279c7c146102f0578063e985e9c51461030c578063f2fde38b1461033c5761010b565b8063715018a6146102425780638da5cb5b1461024c57806395d89b411461026a578063a22cb465146102885761010b565b806323b872dd116100de57806323b872dd146101aa57806342842e0e146101c65780636352211e146101e257806370a08231146102125761010b565b806301ffc9a71461011057806306fdde0314610140578063081812fc1461015e578063095ea7b31461018e575b600080fd5b61012a60048036038101906101259190611c9f565b610358565b6040516101379190611ce7565b60405180910390f35b61014861043a565b6040516101559190611d9b565b60405180910390f35b61017860048036038101906101739190611df3565b6104cc565b6040516101859190611e61565b60405180910390f35b6101a860048036038101906101a39190611ea8565b610551565b005b6101c460048036038101906101bf9190611ee8565b610668565b005b6101e060048036038101906101db9190611ee8565b6106c8565b005b6101fc60048036038101906101f79190611df3565b6106e8565b6040516102099190611e61565b60405180910390f35b61022c60048036038101906102279190611f3b565b610799565b6040516102399190611f77565b60405180910390f35b61024a610850565b005b6102546108d8565b6040516102619190611e61565b60405180910390f35b610272610902565b60405161027f9190611d9b565b60405180910390f35b6102a2600480360381019061029d9190611fbe565b610994565b005b6102be60048036038101906102b99190612133565b6109aa565b005b6102da60048036038101906102d59190611df3565b610a0c565b6040516102e79190611d9b565b60405180910390f35b61030a60048036038101906103059190612257565b610a1e565b005b610326600480360381019061032191906122c6565b610ab3565b6040516103339190611ce7565b60405180910390f35b61035660048036038101906103519190611f3b565b610b47565b005b60007f80ac58cd000000000000000000000000000000000000000000000000000000007bffffffffffffffffffffffffffffffffffffffffffffffffffffffff1916827bffffffffffffffffffffffffffffffffffffffffffffffffffffffff1916148061042357507f5b5e139f000000000000000000000000000000000000000000000000000000007bffffffffffffffffffffffffffffffffffffffffffffffffffffffff1916827bffffffffffffffffffffffffffffffffffffffffffffffffffffffff1916145b80610433575061043282610c3e565b5b9050919050565b60606000805461044990612335565b80601f016020809104026020016040519081016040528092919081815260200182805461047590612335565b80156104c25780601f10610497576101008083540402835291602001916104c2565b820191906000526020600020905b8154815290600101906020018083116104a557829003601f168201915b5050505050905090565b60006104d782610ca8565b610516576040517f08c379a000000000000000000000000000000000000000000000000000000000815260040161050d906123d8565b60405180910390fd5b6004600083815260200190815260200160002060009054906101000a900473ffffffffffffffffffffffffffffffffffffffff169050919050565b600061055c826106e8565b90508073ffffffffffffffffffffffffffffffffffffffff168373ffffffffffffffffffffffffffffffffffffffff16036105cc576040517f08c379a00000000000000000000000000000000000000000000000000000000081526004016105c39061246a565b60405180910390fd5b8073ffffffffffffffffffffffffffffffffffffffff166105eb610d14565b73ffffffffffffffffffffffffffffffffffffffff16148061061a575061061981610614610d14565b610ab3565b5b610659576040517f08c379a0000000000000000000000000000000000000000000000000000000008152600401610650906124fc565b60405180910390fd5b6106638383610d1c565b505050565b610679610673610d14565b82610dd5565b6106b8576040517f08c379a00000000000000000000000000000000000000000000000000000000081526004016106af9061258e565b60405180910390fd5b6106c3838383610eb3565b505050565b6106e3838383604051806020016040528060008152506109aa565b505050565b6000806002600084815260200190815260200160002060009054906101000a900473ffffffffffffffffffffffffffffffffffffffff169050600073ffffffffffffffffffffffffffffffffffffffff168173ffffffffffffffffffffffffffffffffffffffff1603610790576040517f08c379a000000000000000000000000000000000000000000000000000000000815260040161078790612620565b60405180910390fd5b80915050919050565b60008073ffffffffffffffffffffffffffffffffffffffff168273ffffffffffffffffffffffffffffffffffffffff1603610809576040517f08c379a0000000000000000000000000000000000000000000000000000000008152600401610800906126b2565b60405180910390fd5b600360008373ffffffffffffffffffffffffffffffffffffffff1673ffffffffffffffffffffffffffffffffffffffff168152602001908152602001600020549050919050565b610858610d14565b73ffffffffffffffffffffffffffffffffffffffff166108766108d8565b73ffffffffffffffffffffffffffffffffffffffff16146108cc576040517f08c379a00000000000000000000000000000000000000000000000000000000081526004016108c39061271e565b60405180910390fd5b6108d66000611119565b565b6000600760009054906101000a900473ffffffffffffffffffffffffffffffffffffffff16905090565b60606001805461091190612335565b80601f016020809104026020016040519081016040528092919081815260200182805461093d90612335565b801561098a5780601f1061095f5761010080835404028352916020019161098a565b820191906000526020600020905b81548152906001019060200180831161096d57829003601f168201915b5050505050905090565b6109a661099f610d14565b83836111df565b5050565b6109bb6109b5610d14565b83610dd5565b6109fa576040517f08c379a00000000000000000000000000000000000000000000000000000000081526004016109f19061258e565b60405180910390fd5b610a068484848461134b565b50505050565b6060610a17826113a7565b9050919050565b610a26610d14565b73ffffffffffffffffffffffffffffffffffffffff16610a446108d8565b73ffffffffffffffffffffffffffffffffffffffff1614610a9a576040517f08c379a0000000000000000000000000000000000000000000000000000000008152600401610a919061271e565b60405180910390fd5b610aa483836114f8565b610aae8282611516565b505050565b6000600560008473ffffffffffffffffffffffffffffffffffffffff1673ffffffffffffffffffffffffffffffffffffffff16815260200190815260200160002060008373ffffffffffffffffffffffffffffffffffffffff1673ffffffffffffffffffffffffffffffffffffffff16815260200190815260200160002060009054906101000a900460ff16905092915050565b610b4f610d14565b73ffffffffffffffffffffffffffffffffffffffff16610b6d6108d8565b73ffffffffffffffffffffffffffffffffffffffff1614610bc3576040517f08c379a0000000000000000000000000000000000000000000000000000000008152600401610bba9061271e565b60405180910390fd5b600073ffffffffffffffffffffffffffffffffffffffff168173ffffffffffffffffffffffffffffffffffffffff1603610c32576040517f08c379a0000000000000000000000000000000000000000000000000000000008152600401610c29906127b0565b60405180910390fd5b610c3b81611119565b50565b60007f01ffc9a7000000000000000000000000000000000000000000000000000000007bffffffffffffffffffffffffffffffffffffffffffffffffffffffff1916827bffffffffffffffffffffffffffffffffffffffffffffffffffffffff1916149050919050565b60008073ffffffffffffffffffffffffffffffffffffffff166002600084815260200190815260200160002060009054906101000a900473ffffffffffffffffffffffffffffffffffffffff1673ffffffffffffffffffffffffffffffffffffffff1614159050919050565b600033905090565b816004600083815260200190815260200160002060006101000a81548173ffffffffffffffffffffffffffffffffffffffff021916908373ffffffffffffffffffffffffffffffffffffffff160217905550808273ffffffffffffffffffffffffffffffffffffffff16610d8f836106e8565b73ffffffffffffffffffffffffffffffffffffffff167f8c5be1e5ebec7d5bd14f71427d1e84f3dd0314c0f7b2291e5b200ac8c7c3b92560405160405180910390a45050565b6000610de082610ca8565b610e1f576040517f08c379a0000000000000000000000000000000000000000000000000000000008152600401610e1690612842565b60405180910390fd5b6000610e2a836106e8565b90508073ffffffffffffffffffffffffffffffffffffffff168473ffffffffffffffffffffffffffffffffffffffff161480610e6c5750610e6b8185610ab3565b5b80610eaa57508373ffffffffffffffffffffffffffffffffffffffff16610e92846104cc565b73ffffffffffffffffffffffffffffffffffffffff16145b91505092915050565b8273ffffffffffffffffffffffffffffffffffffffff16610ed3826106e8565b73ffffffffffffffffffffffffffffffffffffffff1614610f29576040517f08c379a0000000000000000000000000000000000000000000000000000000008152600401610f20906128d4565b60405180910390fd5b600073ffffffffffffffffffffffffffffffffffffffff168273ffffffffffffffffffffffffffffffffffffffff1603610f98576040517f08c379a0000000000000000000000000000000000000000000000000000000008152600401610f8f90612966565b60405180910390fd5b610fa383838361158a565b610fae600082610d1c565b6001600360008573ffffffffffffffffffffffffffffffffffffffff1673ffffffffffffffffffffffffffffffffffffffff1681526020019081526020016000206000828254610ffe91906129b5565b925050819055506001600360008473ffffffffffffffffffffffffffffffffffffffff1673ffffffffffffffffffffffffffffffffffffffff168152602001908152602001600020600082825461105591906129e9565b92505081905550816002600083815260200190815260200160002060006101000a81548173ffffffffffffffffffffffffffffffffffffffff021916908373ffffffffffffffffffffffffffffffffffffffff160217905550808273ffffffffffffffffffffffffffffffffffffffff168473ffffffffffffffffffffffffffffffffffffffff167fddf252ad1be2c89b69c2b068fc378daa952ba7f163c4a11628f55a4df523b3ef60405160405180910390a461111483838361158f565b505050565b6000600760009054906101000a900473ffffffffffffffffffffffffffffffffffffffff16905081600760006101000a81548173ffffffffffffffffffffffffffffffffffffffff021916908373ffffffffffffffffffffffffffffffffffffffff1602179055508173ffffffffffffffffffffffffffffffffffffffff168173ffffffffffffffffffffffffffffffffffffffff167f8be0079c531659141344cd1fd0a4f28419497f9722a3daafe3b4186f6b6457e060405160405180910390a35050565b8173ffffffffffffffffffffffffffffffffffffffff168373ffffffffffffffffffffffffffffffffffffffff160361124d576040517f08c379a000000000000000000000000000000000000000000000000000000000815260040161124490612a8b565b60405180910390fd5b80600560008573ffffffffffffffffffffffffffffffffffffffff1673ffffffffffffffffffffffffffffffffffffffff16815260200190815260200160002060008473ffffffffffffffffffffffffffffffffffffffff1673ffffffffffffffffffffffffffffffffffffffff16815260200190815260200160002060006101000a81548160ff0219169083151502179055508173ffffffffffffffffffffffffffffffffffffffff168373ffffffffffffffffffffffffffffffffffffffff167f17307eab39ab6107e8899845ad3d59bd9653f200f220920489ca2b5937696c318360405161133e9190611ce7565b60405180910390a3505050565b611356848484610eb3565b61136284848484611594565b6113a1576040517f08c379a000000000000000000000000000000000000000000000000000000000815260040161139890612b1d565b60405180910390fd5b50505050565b60606113b282610ca8565b6113f1576040517f08c379a00000000000000000000000000000000000000000000000000000000081526004016113e890612baf565b60405180910390fd5b600060066000848152602001908152602001600020805461141190612335565b80601f016020809104026020016040519081016040528092919081815260200182805461143d90612335565b801561148a5780601f1061145f5761010080835404028352916020019161148a565b820191906000526020600020905b81548152906001019060200180831161146d57829003601f168201915b50505050509050600061149b61171b565b905060008151036114b05781925050506114f3565b6000825111156114e55780826040516020016114cd929190612c0b565b604051602081830303815290604052925050506114f3565b6114ee84611732565b925050505b919050565b6115128282604051806020016040528060008152506117d9565b5050565b61151f82610ca8565b61155e576040517f08c379a000000000000000000000000000000000000000000000000000000000815260040161155590612ca1565b60405180910390fd5b80600660008481526020019081526020016000209080519060200190611585929190611b90565b505050565b505050565b505050565b60006115b58473ffffffffffffffffffffffffffffffffffffffff16611834565b1561170e578373ffffffffffffffffffffffffffffffffffffffff1663150b7a026115de610d14565b8786866040518563ffffffff1660e01b81526004016116009493929190612d16565b6020604051808303816000875af192505050801561163c57506040513d601f19601f820116820180604052508101906116399190612d77565b60015b6116be573d806000811461166c576040519150601f19603f3d011682016040523d82523d6000602084013e611671565b606091505b5060008151036116b6576040517f08c379a00000000000000000000000000000000000000000000000000000000081526004016116ad90612b1d565b60405180910390fd5b805181602001fd5b63150b7a0260e01b7bffffffffffffffffffffffffffffffffffffffffffffffffffffffff1916817bffffffffffffffffffffffffffffffffffffffffffffffffffffffff191614915050611713565b600190505b949350505050565b606060405180602001604052806000815250905090565b606061173d82610ca8565b61177c576040517f08c379a000000000000000000000000000000000000000000000000000000000815260040161177390612e16565b60405180910390fd5b600061178661171b565b905060008151116117a657604051806020016040528060008152506117d1565b806117b084611857565b6040516020016117c1929190612c0b565b6040516020818303038152906040525b915050919050565b6117e383836119b7565b6117f06000848484611594565b61182f576040517f08c379a000000000000000000000000000000000000000000000000000000000815260040161182690612b1d565b60405180910390fd5b505050565b6000808273ffffffffffffffffffffffffffffffffffffffff163b119050919050565b60606000820361189e576040518060400160405280600181526020017f300000000000000000000000000000000000000000000000000000000000000081525090506119b2565b600082905060005b600082146118d05780806118b990612e36565b915050600a826118c99190612ead565b91506118a6565b60008167ffffffffffffffff8111156118ec576118eb612008565b5b6040519080825280601f01601f19166020018201604052801561191e5781602001600182028036833780820191505090505b5090505b600085146119ab5760018261193791906129b5565b9150600a856119469190612ede565b603061195291906129e9565b60f81b81838151811061196857611967612f0f565b5b60200101907effffffffffffffffffffffffffffffffffffffffffffffffffffffffffffff1916908160001a905350600a856119a49190612ead565b9450611922565b8093505050505b919050565b600073ffffffffffffffffffffffffffffffffffffffff168273ffffffffffffffffffffffffffffffffffffffff1603611a26576040517f08c379a0000000000000000000000000000000000000000000000000000000008152600401611a1d90612f8a565b60405180910390fd5b611a2f81610ca8565b15611a6f576040517f08c379a0000000000000000000000000000000000000000000000000000000008152600401611a6690612ff6565b60405180910390fd5b611a7b6000838361158a565b6001600360008473ffffffffffffffffffffffffffffffffffffffff1673ffffffffffffffffffffffffffffffffffffffff1681526020019081526020016000206000828254611acb91906129e9565b92505081905550816002600083815260200190815260200160002060006101000a81548173ffffffffffffffffffffffffffffffffffffffff021916908373ffffffffffffffffffffffffffffffffffffffff160217905550808273ffffffffffffffffffffffffffffffffffffffff16600073ffffffffffffffffffffffffffffffffffffffff167fddf252ad1be2c89b69c2b068fc378daa952ba7f163c4a11628f55a4df523b3ef60405160405180910390a4611b8c6000838361158f565b5050565b828054611b9c90612335565b90600052602060002090601f016020900481019282611bbe5760008555611c05565b82601f10611bd757805160ff1916838001178555611c05565b82800160010185558215611c05579182015b82811115611c04578251825591602001919060010190611be9565b5b509050611c129190611c16565b5090565b5b80821115611c2f576000816000905550600101611c17565b5090565b6000604051905090565b600080fd5b600080fd5b60007fffffffff0000000000000000000000000000000000000000000000000000000082169050919050565b611c7c81611c47565b8114611c8757600080fd5b50565b600081359050611c9981611c73565b92915050565b600060208284031215611cb557611cb4611c3d565b5b6000611cc384828501611c8a565b91505092915050565b60008115159050919050565b611ce181611ccc565b82525050565b6000602082019050611cfc6000830184611cd8565b92915050565b600081519050919050565b600082825260208201905092915050565b60005b83811015611d3c578082015181840152602081019050611d21565b83811115611d4b576000848401525b50505050565b6000601f19601f8301169050919050565b6000611d6d82611d02565b611d778185611d0d565b9350611d87818560208601611d1e565b611d9081611d51565b840191505092915050565b60006020820190508181036000830152611db58184611d62565b905092915050565b6000819050919050565b611dd081611dbd565b8114611ddb57600080fd5b50565b600081359050611ded81611dc7565b92915050565b600060208284031215611e0957611e08611c3d565b5b6000611e1784828501611dde565b91505092915050565b600073ffffffffffffffffffffffffffffffffffffffff82169050919050565b6000611e4b82611e20565b9050919050565b611e5b81611e40565b82525050565b6000602082019050611e766000830184611e52565b92915050565b611e8581611e40565b8114611e9057600080fd5b50565b600081359050611ea281611e7c565b92915050565b60008060408385031215611ebf57611ebe611c3d565b5b6000611ecd85828601611e93565b9250506020611ede85828601611dde565b9150509250929050565b600080600060608486031215611f0157611f00611c3d565b5b6000611f0f86828701611e93565b9350506020611f2086828701611e93565b9250506040611f3186828701611dde565b9150509250925092565b600060208284031215611f5157611f50611c3d565b5b6000611f5f84828501611e93565b91505092915050565b611f7181611dbd565b82525050565b6000602082019050611f8c6000830184611f68565b92915050565b611f9b81611ccc565b8114611fa657600080fd5b50565b600081359050611fb881611f92565b92915050565b60008060408385031215611fd557611fd4611c3d565b5b6000611fe385828601611e93565b9250506020611ff485828601611fa9565b9150509250929050565b600080fd5b600080fd5b7f4e487b7100000000000000000000000000000000000000000000000000000000600052604160045260246000fd5b61204082611d51565b810181811067ffffffffffffffff8211171561205f5761205e612008565b5b80604052505050565b6000612072611c33565b905061207e8282612037565b919050565b600067ffffffffffffffff82111561209e5761209d612008565b5b6120a782611d51565b9050602081019050919050565b82818337600083830152505050565b60006120d66120d184612083565b612068565b9050828152602081018484840111156120f2576120f1612003565b5b6120fd8482856120b4565b509392505050565b600082601f83011261211a57612119611ffe565b5b813561212a8482602086016120c3565b91505092915050565b6000806000806080858703121561214d5761214c611c3d565b5b600061215b87828801611e93565b945050602061216c87828801611e93565b935050604061217d87828801611dde565b925050606085013567ffffffffffffffff81111561219e5761219d611c42565b5b6121aa87828801612105565b91505092959194509250565b600067ffffffffffffffff8211156121d1576121d0612008565b5b6121da82611d51565b9050602081019050919050565b60006121fa6121f5846121b6565b612068565b90508281526020810184848401111561221657612215612003565b5b6122218482856120b4565b509392505050565b600082601f83011261223e5761223d611ffe565b5b813561224e8482602086016121e7565b91505092915050565b6000806000606084860312156122705761226f611c3d565b5b600061227e86828701611e93565b935050602061228f86828701611dde565b925050604084013567ffffffffffffffff8111156122b0576122af611c42565b5b6122bc86828701612229565b9150509250925092565b600080604083850312156122dd576122dc611c3d565b5b60006122eb85828601611e93565b92505060206122fc85828601611e93565b9150509250929050565b7f4e487b7100000000000000000000000000000000000000000000000000000000600052602260045260246000fd5b6000600282049050600182168061234d57607f821691505b6020821081036123605761235f612306565b5b50919050565b7f4552433732313a20617070726f76656420717565727920666f72206e6f6e657860008201527f697374656e7420746f6b656e0000000000000000000000000000000000000000602082015250565b60006123c2602c83611d0d565b91506123cd82612366565b604082019050919050565b600060208201905081810360008301526123f1816123b5565b9050919050565b7f4552433732313a20617070726f76616c20746f2063757272656e74206f776e6560008201527f7200000000000000000000000000000000000000000000000000000000000000602082015250565b6000612454602183611d0d565b915061245f826123f8565b604082019050919050565b6000602082019050818103600083015261248381612447565b9050919050565b7f4552433732313a20617070726f76652063616c6c6572206973206e6f74206f7760008201527f6e6572206e6f7220617070726f76656420666f7220616c6c0000000000000000602082015250565b60006124e6603883611d0d565b91506124f18261248a565b604082019050919050565b60006020820190508181036000830152612515816124d9565b9050919050565b7f4552433732313a207472616e736665722063616c6c6572206973206e6f74206f60008201527f776e6572206e6f7220617070726f766564000000000000000000000000000000602082015250565b6000612578603183611d0d565b91506125838261251c565b604082019050919050565b600060208201905081810360008301526125a78161256b565b9050919050565b7f4552433732313a206f776e657220717565727920666f72206e6f6e657869737460008201527f656e7420746f6b656e0000000000000000000000000000000000000000000000602082015250565b600061260a602983611d0d565b9150612615826125ae565b604082019050919050565b60006020820190508181036000830152612639816125fd565b9050919050565b7f4552433732313a2062616c616e636520717565727920666f7220746865207a6560008201527f726f206164647265737300000000000000000000000000000000000000000000602082015250565b600061269c602a83611d0d565b91506126a782612640565b604082019050919050565b600060208201905081810360008301526126cb8161268f565b9050919050565b7f4f776e61626c653a2063616c6c6572206973206e6f7420746865206f776e6572600082015250565b6000612708602083611d0d565b9150612713826126d2565b602082019050919050565b60006020820190508181036000830152612737816126fb565b9050919050565b7f4f776e61626c653a206e6577206f776e657220697320746865207a65726f206160008201527f6464726573730000000000000000000000000000000000000000000000000000602082015250565b600061279a602683611d0d565b91506127a58261273e565b604082019050919050565b600060208201905081810360008301526127c98161278d565b9050919050565b7f4552433732313a206f70657261746f7220717565727920666f72206e6f6e657860008201527f697374656e7420746f6b656e0000000000000000000000000000000000000000602082015250565b600061282c602c83611d0d565b9150612837826127d0565b604082019050919050565b6000602082019050818103600083015261285b8161281f565b9050919050565b7f4552433732313a207472616e736665722066726f6d20696e636f72726563742060008201527f6f776e6572000000000000000000000000000000000000000000000000000000602082015250565b60006128be602583611d0d565b91506128c982612862565b604082019050919050565b600060208201905081810360008301526128ed816128b1565b9050919050565b7f4552433732313a207472616e7366657220746f20746865207a65726f2061646460008201527f7265737300000000000000000000000000000000000000000000000000000000602082015250565b6000612950602483611d0d565b915061295b826128f4565b604082019050919050565b6000602082019050818103600083015261297f81612943565b9050919050565b7f4e487b7100000000000000000000000000000000000000000000000000000000600052601160045260246000fd5b60006129c082611dbd565b91506129cb83611dbd565b9250828210156129de576129dd612986565b5b828203905092915050565b60006129f482611dbd565b91506129ff83611dbd565b9250827fffffffffffffffffffffffffffffffffffffffffffffffffffffffffffffffff03821115612a3457612a33612986565b5b828201905092915050565b7f4552433732313a20617070726f766520746f2063616c6c657200000000000000600082015250565b6000612a75601983611d0d565b9150612a8082612a3f565b602082019050919050565b60006020820190508181036000830152612aa481612a68565b9050919050565b7f4552433732313a207472616e7366657220746f206e6f6e20455243373231526560008201527f63656976657220696d706c656d656e7465720000000000000000000000000000602082015250565b6000612b07603283611d0d565b9150612b1282612aab565b604082019050919050565b60006020820190508181036000830152612b3681612afa565b9050919050565b7f45524337323155524953746f726167653a2055524920717565727920666f722060008201527f6e6f6e6578697374656e7420746f6b656e000000000000000000000000000000602082015250565b6000612b99603183611d0d565b9150612ba482612b3d565b604082019050919050565b60006020820190508181036000830152612bc881612b8c565b9050919050565b600081905092915050565b6000612be582611d02565b612bef8185612bcf565b9350612bff818560208601611d1e565b80840191505092915050565b6000612c178285612bda565b9150612c238284612bda565b91508190509392505050565b7f45524337323155524953746f726167653a2055524920736574206f66206e6f6e60008201527f6578697374656e7420746f6b656e000000000000000000000000000000000000602082015250565b6000612c8b602e83611d0d565b9150612c9682612c2f565b604082019050919050565b60006020820190508181036000830152612cba81612c7e565b9050919050565b600081519050919050565b600082825260208201905092915050565b6000612ce882612cc1565b612cf28185612ccc565b9350612d02818560208601611d1e565b612d0b81611d51565b840191505092915050565b6000608082019050612d2b6000830187611e52565b612d386020830186611e52565b612d456040830185611f68565b8181036060830152612d578184612cdd565b905095945050505050565b600081519050612d7181611c73565b92915050565b600060208284031215612d8d57612d8c611c3d565b5b6000612d9b84828501612d62565b91505092915050565b7f4552433732314d657461646174613a2055524920717565727920666f72206e6f60008201527f6e6578697374656e7420746f6b656e0000000000000000000000000000000000602082015250565b6000612e00602f83611d0d565b9150612e0b82612da4565b604082019050919050565b60006020820190508181036000830152612e2f81612df3565b9050919050565b6000612e4182611dbd565b91507fffffffffffffffffffffffffffffffffffffffffffffffffffffffffffffffff8203612e7357612e72612986565b5b600182019050919050565b7f4e487b7100000000000000000000000000000000000000000000000000000000600052601260045260246000fd5b6000612eb882611dbd565b9150612ec383611dbd565b925082612ed357612ed2612e7e565b5b828204905092915050565b6000612ee982611dbd565b9150612ef483611dbd565b925082612f0457612f03612e7e565b5b828206905092915050565b7f4e487b7100000000000000000000000000000000000000000000000000000000600052603260045260246000fd5b7f4552433732313a206d696e7420746f20746865207a65726f2061646472657373600082015250565b6000612f74602083611d0d565b9150612f7f82612f3e565b602082019050919050565b60006020820190508181036000830152612fa381612f67565b9050919050565b7f4552433732313a20746f6b656e20616c7265616479206d696e74656400000000600082015250565b6000612fe0601c83611d0d565b9150612feb82612faa565b602082019050919050565b6000602082019050818103600083015261300f81612fd3565b905091905056fea2646970667358221220ff81da8dc34b226f576f661a3d8074945ef063eb498171c47b0e541ff0e5938664736f6c634300080d0033",
  "immutableReferences": {},
  "source": "// SPDX-License-Identifier: MIT\npragma solidity ^0.8.4;\n\nimport \"@openzeppelin/contracts/token/ERC721/ERC721.sol\";\nimport \"@openzeppelin/contracts/token/ERC721/extensions/ERC721URIStorage.sol\";\nimport \"@openzeppelin/contracts/access/Ownable.sol\";\n\ncontract NftBridgeToken is ERC721, ERC721URIStorage, Ownable {\n    constructor() ERC721(\"NftBridgeToken\", \"NBT\") {}\n\n    function safeMint(address to, uint256 tokenId, string memory uri)\n        public\n        onlyOwner\n    {\n        _safeMint(to, tokenId);\n        _setTokenURI(tokenId, uri);\n    }\n\n    function _burn(uint256 tokenId) internal override(ERC721, ERC721URIStorage) {\n        super._burn(tokenId);\n    }\n\n    function tokenURI(uint256 tokenId)\n        public\n        view\n        override(ERC721, ERC721URIStorage)\n        returns (string memory)\n    {\n        return super.tokenURI(tokenId);\n    }\n}\n",
  "sourcePath": "/home/razor/Documents/merkleroot/bootcamp-bridge-beta-darleneharriscrypto/nft_contract/contracts/NftBridgeToken.sol",
  "compiler": {
    "name": "solc",
    "version": "0.8.13+commit.abaa5c0e.Emscripten.clang"
  },
  "schemaVersion": "3.4.7",
  "updatedAt": "2022-06-14T14:10:26.216Z",
  "devdoc": {
    "kind": "dev",
    "methods": {
      "approve(address,uint256)": {
        "details": "See {IERC721-approve}."
      },
      "balanceOf(address)": {
        "details": "See {IERC721-balanceOf}."
      },
      "getApproved(uint256)": {
        "details": "See {IERC721-getApproved}."
      },
      "isApprovedForAll(address,address)": {
        "details": "See {IERC721-isApprovedForAll}."
      },
      "name()": {
        "details": "See {IERC721Metadata-name}."
      },
      "owner()": {
        "details": "Returns the address of the current owner."
      },
      "ownerOf(uint256)": {
        "details": "See {IERC721-ownerOf}."
      },
      "renounceOwnership()": {
        "details": "Leaves the contract without owner. It will not be possible to call `onlyOwner` functions anymore. Can only be called by the current owner. NOTE: Renouncing ownership will leave the contract without an owner, thereby removing any functionality that is only available to the owner."
      },
      "safeTransferFrom(address,address,uint256)": {
        "details": "See {IERC721-safeTransferFrom}."
      },
      "safeTransferFrom(address,address,uint256,bytes)": {
        "details": "See {IERC721-safeTransferFrom}."
      },
      "setApprovalForAll(address,bool)": {
        "details": "See {IERC721-setApprovalForAll}."
      },
      "supportsInterface(bytes4)": {
        "details": "See {IERC165-supportsInterface}."
      },
      "symbol()": {
        "details": "See {IERC721Metadata-symbol}."
      },
      "transferFrom(address,address,uint256)": {
        "details": "See {IERC721-transferFrom}."
      },
      "transferOwnership(address)": {
        "details": "Transfers ownership of the contract to a new account (`newOwner`). Can only be called by the current owner."
      }
    },
    "version": 1
  },
  "userdoc": {
    "kind": "user",
    "methods": {},
    "version": 1
  }
}